:1000000000000220FD2F00002530000027300000F6
:10001000293000002B3000002D30000000000000CF
:100020000000000000000000000000002F30000071
:100030003130000000000000333000003530000097
:100040003730000037300000AD33000035190000B4
:100050002919000037300000373000003730000029
:1000600037300000373000003730000037300000F4
:1000700037300000373000003730000037300000E4
:1000800037300000293400003730000037300000DE
:1000900037300000373000003730000037300000C4
:1000A00037300000373000003730000037300000B4
:1000B0003730000037300000000000000000000072
:1000C0003730000037300000373000003730000094
:1000D0003730000037300000373000003730000084
:1000E00037300000000000000000000000000000A9
:1000F0000000000037300000000000003730000032
:1001000000000000000000000000000000000000EF
:1001100000000000000000000000000000000000DF
:1001200000000000000000000000000000000000CF
:1001300000000000000000000000000000000000BF
:1001400000000000000000000000000000000000AF
:10015000000000000000000000000000000000009F
:10016000000000000000000000000000000000008F
:10017000000000000000000000000000000000007F
:10018000000000000000000000000000000000006F
:10019000000000000000000000000000000000005F
:1001A000000000000000000000000000000000004F
:1001B000000000000000000000000000000000003F
:1001C000000000000000000000000000000000002F
:1001D000000000000000000000000000000000001F
:1001E000000000000000000000000000000000000F
:1001F00000000000000000000000000000000000FF
:10020000044B05481B1A062B02D9044B03B11847AF
:10021000704700BF93000020900000200000000005
:1002200005490648091A891001EBD171491002D01D
:10023000034B03B118477047900000209000002046
:100240000000000010B5064C237843B9FFF7D8FF33
:10025000044B13B10448AFF300800123237010BD99
:100260009000002000000000A053000008B5084BDB
:100270001BB108490848AFF300800848036813B968
:10028000BDE80840CCE7064B002BF9D09847F7E7CC
:100290000000000094000020A05300008C0000200B
:1002A00000000000154B002B08BF134B9D46A3F523
:1002B000803A00218B460F461348144A121A03F065
:1002C000CAF90F4B002B00D098470E4B002B00D0E3
:1002D00098470020002104000D000D48002802D09E
:1002E0000C48AFF3008003F071F92000290003F0FF
:1002F000B1F803F045F900BF00000800000002203B
:1003000000000000000000009000002064050020B4
:10031000000000000000000070470000014801F0EC
:1003200045BC00BFAC0000202DE9F041514C5248C3
:10033000ADF5607D4FF4165102F000FF21464F48A5
:1003400001F016FA4D4801F0ADF94D4B02934FF014
:10035000FF33009380210194484B402214A800F001
:10036000FFF81021474801F06DFC08B9464976E0D6
:1003700001254649404802F0F7FD2B463C22022168
:10038000009514A800F000FA30AC14A800F0EEF9C3
:100390002B463F4A3B49204601F0ECFC3D4B62684E
:1003A0005A60A2689A60E268DA600022A018991880
:1003B0000132007C08740D2AF8D1364B226A1A6289
:1003C000002504AE0127334801F00DFC002842D07F
:1003D000304801F008FC4028A8BF402082B2804687
:1003E00031462C4801F0EEFBB5F5207F4FF00003BD
:1003F00003D3C5F53078621907E06219F15CD15476
:100400000133402BFAD14544DDE7984503D9F15C2F
:10041000D1540133F9E714A800F0A8F9562240237B
:100420008DE80C0015212346002214A8029700F045
:100430009FFE14A800F064FC322002F0E7FFB044F5
:100440000023A5F520729A421546BCD918F803106E
:10045000E1540133F7E70F4801F0D8FB0E49064895
:1004600002F082FD14A800F0A9F80DF5607DBDE84A
:10047000F08100BF801A0600EC0400208C010020EF
:10048000A0860100680200203C46000053460000A0
:100490005F460000AC0000206C460000002930B52B
:1004A0005DDBB0F90C408C4259DD002A57DBB0F916
:1004B0000E40944200DC30BD847E022C03D10489BE
:1004C000013C611A06E0032C3DD1514089B24A40FB
:1004D00092B251404489013CA21A09B212B2012BD6
:1004E00003D010D3022B1ED030BD0589082492FB07
:1004F000F4F414FB0511C46A02F00702605C934037
:100500000343635430BD0489082392FBF3F313FBC8
:100510000411C46A02F007020120635C00FA02F2CF
:1005200023EA02020DE00489082392FBF3F313FB94
:100530000411C46A02F007020120635C00FA02F2AF
:100540005A40625430BD012CC9D1514089B24A4051
:10055000048912B2013C5140611A09B2BFE730BDB3
:1005600038B504461D4600F0E9FD124B2360124BDE
:100570000022954208BF1D46FF2384F8333084F8DB
:10058000343084F8353084F836309DF9103084F8F2
:100590003730059BA365069BE3654FF08043636698
:1005A000022384F868306262A562E262E266204655
:1005B00038BD00BF944600008C010020044B10B5EC
:1005C00004460360C06A08B103F02EF8204610BD4F
:1005D00094460000F8B50446806A0E4690B194F83F
:1005E000301001F0E3F8A06A036800211B68984707
:1005F000A06A036831461B689847A06ABDE8F840C6
:1006000001F03BB9226C206D136823EA0003606A95
:10061000136018B1BDE8F84001F025BAE36B08207B
:100620008025A26BA16C17682E4214BF394327EABC
:10063000010111601968E26C0A431A601A68E16CE2
:10064000013822EA01021A604FEA5505E9D1F8BDE6
:1006500038B50446806A0D4618B1A16D01F088F8DE
:100660000CE0606A20B104F164030ECB01F0EEF9F6
:10067000626C616D136823EA01031360002D20464C
:1006800014BFA721A621FFF7A5FFA06A20B1E16D45
:10069000BDE8384001F06CB8626C636D1168606A47
:1006A0000B43136018B1BDE8384001F0DBB938BD29
:1006B000F8B50446806A0D468F1848B394F8301098
:1006C00001F074F8A06A036800211B6898470126AE
:1006D000BD4218D03E2E0DD9A06A01F0CEF894F894
:1006E0003010A06A01F062F8A06A036800211B685C
:1006F00098470126A06A15F8011B036801361B689C
:100700009847B6B2E4E7A06ABDE8F84001F0B5B892
:10071000226C216D136823EA01031360BD4224D0CB
:10072000606A15F8011B10B101F09DF9F6E7E36B63
:1007300008264FF0800EA26BA06CD2F800C011EA20
:100740000E0F14BF4CEA00002CEA0000106018687D
:10075000E26C02431A601A68E06C013E22EA000271
:100760001A604FEA5E0EE6D1D8E7F8BDB0F90A305C
:100770000822073393FBF2F3B0F90820C06A5A430A
:10078000002102F068BF00002DE9F0431E4685B04D
:10079000C36A9DF8307004468846154673B9B0F9AF
:1007A0000A300820073393FBF0F3B4F908005843EC
:1007B00002F032FFE062002800F058812046FFF787
:1007C000D5FFB4F90A20B4F90830202A4FF002010D
:1007D0000EDD523B403A4FF0400992FBF1F24FF0F0
:1007E000010C93FBF1F152238DE80812A14B0CE0B0
:1007F000733B203A732092FBF1F24FF0010E93FB12
:10080000F1F120238DE809409B4B204612B209B23A
:1008100000F003FDA06A84F8318080B135B9B4F9E5
:100820000A30202B14BF3D253C2500E0EDB284F8B2
:100830003050002F00F0168100F034FF6FE00121EE
:1008400094F93500DFF84C92DFF84C8202F034FE68
:10085000012194F9360002F02FFE94F93530606AD8
:1008600059F82330012513F0200F03F01F0305FA78
:1008700003F3236594F9363059F823300CBF4FF059
:10088000A042424602F5A16213F0200F03F01F03BD
:10089000226405FA03F30CBF4FF0A04242466365A1
:1008A00002F5A1616164D2F808150B43C2F808355E
:1008B00018B1A7B301F0B4F831E0294694F9330038
:1008C00002F0FAFD294694F9340002F0F5FD94F99E
:1008D000333059F8233013F0200F03F01F0305FACB
:1008E00003F3A36494F9343059F823300CBF4FF06C
:1008F000A042424613F0200F03F01F0308BF4FF041
:10090000A0489D40E564D8F8083502F5A162A263CD
:1009100023EA050508F5A162E263C8F80855DEB1CF
:1009200094F93700002817DB012102F0C5FD0121F1
:1009300094F9370002F0EAFD012002F067FD002182
:1009400094F9370002F0E2FD0A2002F05FFD012178
:1009500094F9370002F0DAFDA06A18B1A16D00F039
:1009600007FF0CE0606A20B104F164030ECB01F0D4
:100970006DF8626C616D136823EA01031360042251
:100980003E492046FFF794FEA17A0139C9B22046BC
:10099000FFF720FE3A4904222046FFF789FE94F92A
:1009A0003130012B14BF142110212046FFF712FE15
:1009B000042234492046FFF77BFE8F2384F8603001
:1009C000314AA368934218D002F50012934209D12C
:1009D00094F93130012B14BFCF239F2384F860306A
:1009E00012250BE0294A934207D194F93130012BAB
:1009F00014BFAF23102384F860300225DA2120468B
:100A0000FFF7E8FD29462046FFF7E4FD8121204657
:100A1000FFF7E0FD94F860102046FFF7DBFDD921D9
:100A20002046FFF7D7FD94F93130012B14BFF12197
:100A300022212046FFF7CEFD204606221449FFF76B
:100A400037FEA06A18B1E16D00F092FE08E0626C1A
:100A5000636D1168606A0B43136008B101F002F81E
:100A6000012003E0002E3FF479AF59E705B0BDE85F
:100A7000F08300BFCE480000DC460000BC48000008
:100A8000C0480000C4480000800020006000100042
:100A9000C8480000FC51000000030050F0B5002AD7
:100AA000BDF8146046DBB0F90A40944242DD0029EB
:100AB000B8BF5B180489BCBF1BB20021CD1827B298
:100AC000BD42C4BF631A1BB2002B33DD0825C06AC8
:100AD00092FBF5F5ADB214FB0511084402F00702D4
:100AE000012101FA02F28E42D2B203D00CD3022EBF
:100AF00016D0F0BD013B1BB25D1C1BD010F8011BD2
:100B0000114300F8011CF5E7D243D2B2013B1BB2FE
:100B10005C1C0FD010F8011B114000F8011CF5E718
:100B2000013B1BB2591C05D010F8011B514000F8C5
:100B3000011CF5E7F0BD0000F0B50F1EBDF8145024
:100B4000C0F28B8001890FFA81FE774580F28580A3
:100B5000002AB8BF9B184489BCBF1BB20022D6181C
:100B60000FFA84FC6645C4BFA31A1BB2002B74DDC8
:100B7000D2B2D408C66A11FB047112F00702DBB2CC
:100B800006EB01042BD0C2F10802D2B2334F9342DC
:100B9000BF5C0DD2C3EB020C4FF0FF0E4EFA0CFE01
:100BA000012D0EEA070705D00AD3022D55D10CE01E
:100BB000012D04D116F801E047EA0E0709E048D2FA
:100BC00016F801E02EEA070703E016F801E087EACD
:100BD0000E079342775440D3B0F908100C449B1A87
:100BE000DBB2072B1CD9022D0BD11A462178C94341
:100BF0002170083AB0F90810D2B2072A0C44F5D88F
:100C00001EE0002D14BFFF2600261A462670083A63
:100C1000B0F90810D2B2072A0C44F7D803F0070342
:100C2000DBB10F4A012DD35C03D005D3022D14D1C3
:100C30000BE0227813430AE0227822EA030306E05D
:100C400013F0070309D0064AD35C2278534023707F
:100C5000F0BD022DB9D07444C1E7F0BD8446000058
:100C60007746000070B4847EBDF80C60022C08D07A
:100C7000032C0FD0012C18D10589013DAC1A24B2E8
:100C80000DE04489013CA41A22B20489E41A611AD5
:100C900009B20AE014464289D21A511A09B20396DF
:100CA0000A46214670BCFFF747BF039670BCFFF7AA
:100CB000F5BE70B4847EBDF80C60022C08D0032C05
:100CC0000FD0012C18D10589ED1AAC1A24B20DE011
:100CD0000489013C611A4489E41AA41A09B222B2B7
:100CE0000AE014464289013A511A09B203960A46AB
:100CF000214670BCFFF7D2BE039670BCFFF71CBF45
:100D0000F8B50446806A18B1A16D00F031FD0CE021
:100D1000606A20B104F164030ECB00F097FE626CB0
:100D2000616D136823EA0103136005223F492046E1
:100D3000FFF7BEFC217A01392046C9B2FFF74AFC11
:100D4000B4F90A50E66AA06A0823073595FBF3F563
:100D5000238913FB05F516FA85F540B394F8301096
:100D600000F024FDA06A036840211B689847012712
:100D7000AE4218D03E2F0DD9A06A00F07EFD94F847
:100D80003010A06A00F012FDA06A036840211B68C1
:100D900098470127A06A16F8011B036801371B68F2
:100DA0009847BFB2E4E7A06A00F067FD2BE0226C31
:100DB000236D11680B431360AE4224D0606A16F8AD
:100DC000011B10B100F04FFEF6E7E36B08274FF070
:100DD000800EA26BA06CD2F800C011EA0E0F14BFF7
:100DE0004CEA00002CEA000010601868E26C024334
:100DF0001A601A68E06C013F22EA00021A604FEAAA
:100E00005E0EE6D1D8E7A06A20B1E16DBDE8F840FA
:100E100000F0AEBC626C636D1168606A0B431360D6
:100E200018B1BDE8F84000F01DBEF8BD7F460000D7
:100E30002DE9F04F85B01F46BDF93830BDF83CA014
:100E400015469A1A002AB8BF524200927A1A002A0E
:100E5000B8BF524201920C46009A01998A428146DB
:100E600005DD3A461F46134622462C461546BC422F
:100E700005DD2A461D46134622463C4617465A1BA8
:100E8000002AC4EB0708B8BF52421FFA88F8039241
:100E900002260FFA88F292FBF6F64FF6FF729D4299
:100EA000B8BF0122B6B20292BC421FDC019A009B7D
:100EB0009342D9F80030C8BF2246D3F810B0C8BF5B
:100EC00029465346DCBF2A4621464846D847039B5D
:100ED000F61AB3B29EB2320405D5029A08EB0306A5
:100EE00015442DB2B6B2013424B2DDE705B0BDE839
:100EF000F08F10B40468A468A4465DF8044B604702
:100F000030B40468BDF808500295246BA44630BC88
:100F1000604730B40468BDF808500295646BA4467D
:100F200030BC604770B40468BDF90C50BDF8106067
:100F300004960395A46BA44670BC604770472DE9E6
:100F4000F3411C460368BDF82080DB680546164661
:100F5000013C34440F4624B298472B68CDF80480F6
:100F600000941C6A28463B4632463946A0472B6807
:100F70005B6A284602B0BDE8F04118472DE9F3410D
:100F80001D460368BDF82080DB68044617460E4600
:100F900098478DE8800122686B1E3344156A20460D
:100FA0001BB23A463146A84723685B6A204602B026
:100FB000BDE8F04118472DE9F3471E460368BDF927
:100FC0002880DB68BDF82C900C46054617469847EC
:100FD0002644B4422A680BDACDF80090D2F818A063
:100FE000214643463A4628460134D04724B2F0E72A
:100FF000536A284602B0BDE8F047184713B5B0F968
:101000000E200468019100920022B0F90C30A46B0C
:101010001146A04702B010BD2DE9F7439942904612
:1010200007460E461C46BDF92850BDF82C900268B4
:101030000BD1A845C2BF4346A8461D466B1CCDF840
:101040002890C8EB0303146B0CE0A84513D1994218
:10105000C4BF0B462646CDF82890C8BF1C46631C6B
:10106000546B9B1B1BB2424631463846A44603B024
:10107000BDE8F0436047D36898473B688DE820029D
:1010800038461D6A424623463146A8473B685B6A9C
:10109000384603B0BDE8F04318472DE9F3471E4634
:1010A0000368BDF82C80DB68BDF9289004460D4626
:1010B000174698472368CDF80080D3F81CA03A461D
:1010C000334629462046D0472368CDF8008009F1F1
:1010D000FF323A44D3F81CA029463346204612B2C8
:1010E000D0472368CDF80080D3F818A03A464B4685
:1010F00029462046D0472368CDF80080711E294438
:1011000020469D693A464B4609B2A84723685B6A68
:10111000204602B0BDE8F0471847704701F00301D0
:10112000012981760389428904D0032902D0838171
:10113000C28170478281C3817047000030B5018150
:1011400000240A4D42818181C2814FF6FF71012244
:101150004460056084760482448242760276C182CD
:101160008182C2760477046230BD00BF984B0000D4
:101170002DE9F04F89B09A46BDF94C300393BDF884
:101180005030049303680292DB680191BDF94890E6
:10119000002605469847082300963446079309F130
:1011A000070292FBF3FB009A029B03991344BDF9DB
:1011B000002091429BB229DD0AEB06021BB24FF0E0
:1011C0000008059206931FFA88F10BB24B4518DA16
:1011D0004A0703BF079A93FBF2F3059A64000CBF1A
:1011E000D45CE4B2230609D5019B069A19442B6806
:1011F0001B6909B21F462846049BB84708F101083D
:10120000E1E7009B013300935E44CCE72B685B6A07
:10121000284609B0BDE8F04F184770B4BDF90C403E
:10122000BDF91050BDF8146005960495039470BC88
:10123000FFF79EBF2DE9F04F91B09046026A0391EF
:101240001E46BDF8683002930446BDF86C909DF8C8
:1012500070709DF87450002A40F0B280B0F90C30E4
:101260008B4240F33F81B0F90E30434540F33A8161
:10127000062313FB0713002B40F3348108EBC5034F
:10128000002B40F32F81037F1BB9AF2E84BF0136A3
:10129000F6B223682046DB689847052309930023AC
:1012A00006933BB20C939DF918309049052212FB2E
:1012B00006324FF0000A8A5C0592BAB20792BDF876
:1012C0000C2004920499079A03FB021292B211FABD
:1012D00083F308921BB208220A920B93059BDA074C
:1012E00011D5012F4FFA8AF207D1012D05D12368BC
:1012F0004244D3F810B0029B13E002992368019195
:1013000002FB058217E0029B4B451DD0012F4FFACF
:101310008AF20BD1012D09D123684244D3F810B0D1
:101320004B4612B20B992046D8470DE02368CDF802
:10133000049002FB05820095D3F814B0BDF920108B
:101340000C9B12B22046D847059B5B0805930A9B6D
:10135000013B0AF1010A13F0FF035FFA8AFA0A93CC
:10136000BCD1069B0133DBB20693099B013B13F012
:10137000FF03099397D1029B4B4500F0AC80012FEE
:1013800023680CD1012D0AD10499CDF800900531C4
:101390009D694246082309B22046A8479BE0079A68
:1013A000CDF8049002EB8201049AED000A44114644
:1013B00000955D6942463B4609B22046A8478AE04F
:1013C000137A516812680D92F61AF6B201EBC60351
:1013D00031F8362004929A780792DA780A92012F2F
:1013E0005A7908929E7901D8012D07D99DF92030AC
:1013F0009BB2069373B29BB2059302E00023059360
:10140000069323682046DB6898471FFA88F34FF05D
:101410000009099343FA86F3CB46CA460F930A9B09
:101420005FFA89F29A4256D2059B09994B4413FB05
:1014300005F30B440F999BB28A180C9300265B4668
:101440000E92079A96423FD25A1CD2B25B070B9279
:1014500007D1049B04990D9A01339BB212F801A0A5
:1014600004931AF0800F27D0012F11D1012D0FD135
:101470009DF82020039B43FA82F12368BDF93820B0
:10148000D3F81080029B314409B22046C04713E0D4
:10149000BDF81830029A019206FA83F1039B009579
:1014A00011FB07F119442368BDF93020D3F81480EB
:1014B00009B23B462046C0474FEA4A0A01365FFA66
:1014C0008AFAF6B20B9BBCE7079B9B445FFA8BFB47
:1014D00009F10109A3E723685B6A204611B0BDE862
:1014E000F04F184711B0BDE8F08F00BFE04B00008F
:1014F000F0B5026A85B004460B46002A2FD10A29AE
:1015000005D10282438A427E03EBC20330E00D29FB
:101510006AD0C17E457E007E69B1B4F910600621B3
:1015200011FB0061B4F90C60B142C1BF2282628A32
:1015300002EBC50262820290E08A0190A08AB4F9AF
:1015400012200090B4F9101003952046FFF772FEA8
:10155000237E228A03EB430302EB430343E00A2981
:1015600008D100230382417E127B438A01FB0233B0
:10157000638239E00D2937D0157AA94234D3917AA4
:10158000994231D351685D1BEDB201EBC505A978D5
:1015900021B3E87810B3E77E667E207E8FB195F99F
:1015A00005703944B4F9107000FB0171B4F90C7086
:1015B000B94206DD00212182127B618A06FB0212FC
:1015C00062820290E08A0190A08A0090B4F9122011
:1015D000B4F9101003962046FFF72CFE2979227EDD
:1015E000238A01FB02332382012005B0F0BD2DE9DF
:1015F000F84380460D46174601EB02090C464C4560
:10160000A4EB050609D0D8F8003014F8011B1B68BC
:10161000404698470028F2D100E03E463046BDE8FB
:10162000F8837047203001F0D1BC38B5437F0D46B8
:101630002BB100F16804204601F0D6FC08B100206F
:1016400038BD2046294601F0A4FC012038BD2030D9
:1016500001F0AEBC203001F0BFBC00002DE9F0412C
:101660001E464FF47A73002583600D4B4560044697
:1016700040F8203B8846174601F080FC04F16800E2
:1016800001F07CFC9DF8183063769DF81C30A37641
:10169000C4F810806761267665772046BDE8F08142
:1016A000E8500000F0B5837E2D4C2E4D54F82320D9
:1016B000437E54F8233012F0200F14BF2F464FF012
:1016C000A04702F01F0213F0200F03F01F0308BF12
:1016D0004FF0A04502F5E07203F5E073012140F2FE
:1016E0000C66C17647F8226045F8236003694FF025
:1016F000CC72C3F824250622C3F80025827E54F854
:101700002220C3F80825427E54F82220C3F80C2575
:10171000027E53B2D2B202F01F055C09A9406034C8
:10172000114D002B45F8241006DA104B02F00F0281
:10173000134440221A7606E003F1604303F5614347
:10174000402283F80023037E01215AB203F01F03D5
:1017500001FA03F35209044941F82230F0BD00BFF9
:10176000FC5100000003005000E100E0FCEC00E050
:10177000C37EABB103690022C3F80025094A914238
:1017800007D9094A914294BF4FF080614FF0C86178
:1017900001E04FF0CC710622C3F82415C3F80025F0
:1017A000704700BFA086010090D0030010B504462A
:1017B00080F8B010683001F0F7FB0123637710BDAB
:1017C0002DE9F041002305694377012790F8B030F7
:1017D000C5F8883500F1680604462F623046C5F822
:1017E0004465884601F0F2FB2369C5F848059F600F
:1017F000D3F850211AB9D3F82421002AF8D00022B6
:10180000C3F85021304601F0E1FB236930B1D3F831
:1018100060211AB9D3F82421002AF8D00022C3F895
:1018200060210122B8F1000F02D1D3F8241141B197
:101830005A61D3F80421002AFBD00022C3F8042106
:1018400007E0DA61D3F84821002AFBD00022C3F870
:101850004821D3F8240170B10022C3F82421D3F821
:10186000C404C3F8C404022805D0042814BF04200B
:101870000320BDE8F081BDE8F0810121FFF7A0BFA2
:101880004369D3F8642170B5044682B10022012572
:1018900000F12006C3F864210577304601F084FB8F
:1018A00063694022C3F83465C3F838251D63636952
:1018B000D3F86821D2B10025C3F8685104F1680655
:1018C000012363772577304601F06EFBD4F8B430FE
:1018D00003B19847657765693046C5F8446501F0FE
:1018E00075FB6369C5F8480501225A636369D3F83B
:1018F00004215AB10022C3F80421227F32B1D3F867
:101900003C05D4F8B830206603B198476369D3F832
:10191000242142B10022C3F82421D3F8D024C3F8F3
:10192000D02401225A6170BD0148FFF7A9BF00BF52
:101930008C0100200148FFF7A3BF00BFD0000020AA
:1019400007B5132314228DE80C004FF040221146F6
:1019500004230848FFF782FE074A08481E211F2378
:101960008DE80A0003231146FFF778FE03B05DF807
:1019700004FB00BF8C01002000300040D00000209C
:1019800038B50025057329B90B4B0C4A0C482521A5
:1019900001F0D8FD01600B4951F82220027151F885
:1019A000233083719DF8103051F8233043710223A6
:1019B000C371856038BD00BF3D510000005100007B
:1019C0004B510000FC510000037B23B94373837328
:1019D00003610123037370471FB50DF1100E0EE96B
:1019E0000E009DF80810026800230129C2F8003596
:1019F000039B08D004D3032907D143F0040304E078
:101A000043F0020301E043F00603C2F85435019BA2
:101A1000C2F824350123C2F8003505B05DF804FB97
:101A200010B5FFF7D1FF03688279C3F80825427922
:101A3000C3F80C250279C3F81025034BBDE810400C
:101A40000ECBFFF7C9BF00BF4802002010B485B01D
:101A500001AC84E80E0094E80E0005B05DF8044B7C
:101A6000FFF7BABF70470368C3F81C15D3F8082105
:101A7000002AFBD0D3F818050022C3F80821C0B211
:101A80007047000007B5094B09490A484FF08042EA
:101A90001A6000229A6002221A710F2300930E220C
:101AA0000D23FFF76DFF03B05DF804FB4802002033
:101AB000003002405402002013B502AB026803F864
:101AC000011D546819460122A04702B010BD10B58F
:101AD0000446006A18B901236360002010BD00238A
:101AE000436092B200F0E6FE236A5B68002BF2D1FD
:101AF00010BD006A08B100F0B7BF7047006A10B1AE
:101B0000012100F077BD704707B501220DF10701F3
:101B100000F09CFC01280CBF9DF807004FF6FF70F9
:101B200000B203B05DF804FB006A08B510B1FFF71E
:101B3000EBFF08BD4FF0FF3008BD38B50546006A21
:101B400050B1FFF7E1FF431C044604D0286A016945
:101B5000013900F01FFD204638BD0000F8B5002314
:101B600043604FF47A7383600F4B0360054628206F
:101B70000C46164601F050FD286298B123460246F5
:101B800004F1280718685968144603C40833BB4297
:101B90002246F7D10C22314605F1100002F006F979
:101BA00000232B772846F8BDBC5100004FF47A7112
:101BB0000022816002494260016002620274704743
:101BC000BC510000006A08B508B100F03FFC08BD38
:101BD000036A0BB1186970474FF0FF307047006A15
:101BE00000B1C069704708B5036A014663B1FFF7E9
:101BF000F6FF02460846FFF7EBFF47F6FF73101AA1
:101C0000984228BF184608BD184608BD10B50446BE
:101C1000006A30B100F020FD206A01F005FD0023CC
:101C2000236210BD38B5012204460D4601F0EEF8DE
:101C3000024628B929462046BDE8384001F0E6B8FA
:101C4000012038BD38B590F8413004460D4613B137
:101C5000383000F001FD2A460121204600F09CF9B1
:101C600008B9002038BD04F1100521462846FFF7C9
:101C7000D9FF0028F5D0294604F1380000F0BEFB5A
:101C8000003018BF012038BD4A6842600A4A02602D
:101C90000A7A02724A7A4272CA68C2600A690261AA
:101CA0004A6942610A7E0276CA69C2610A6A0262B0
:101CB0004A6A4262704700BFF45100002DE9F04FBC
:101CC0009BB000272A4E079792468146103106A8FE
:101CD0009B4606968DF82170119710968DF84970E5
:101CE000544600F08BFB0DF1400806AD01962F2104
:101CF000204602F045F878B323782F2B07D14346CE
:101D00000134A8461D462B4645469846EFE7061B7C
:101D1000F6B20C2E28BF0C263246214602A802F04D
:101D200045F81AAB3344404603F8607C00F094FC5D
:101D3000012302AA2946404600F02AFD38B9019B3A
:101D4000C9F80400C9F8003089F809000CE02846F9
:101D5000344400F081FCD6E7CAEB0404CBF8004021
:101D600029464846FFF790FF48461BB0BDE8F08F74
:101D7000F4510000F0B5A1B004461D4602A801AB25
:101D80001746FFF79BFF019BFE18FB5C2BB902A9CE
:101D900016A8FFF779FF174A24E000230D938DF86A
:101DA00039309DF81130144A0C921BB92046FFF7C8
:101DB000FDFE1BE02B46324602A90CA800F0E8FC11
:101DC0000028F3D002A805F0060500F045FC062D1A
:101DD00003D113990CA800F0DDFB0CA916A8FFF79E
:101DE00053FF324616A92046FFF7B8FE204621B021
:101DF000F0BD00BFD8510000F4510000074B022194
:101E00000022196106495A719A719A721A7383F8FD
:101E10003020DA63996383F841207047680200201C
:101E2000F451000001460148FFF71DBE5402002096
:101E3000FF210148FFF717BE5402002008B5012119
:101E4000007901F063FB054B1A7832B100221A7059
:101E50000348BDE80840FFF705BE08BDD8020020D2
:101E60005402002010B5084B1A78044632B90122FA
:101E70001A70064B06480ECBFFF7E8FD20790021CB
:101E8000BDE8104001F042BBD8020020CC02002087
:101E90005402002038B58379044673B140F201251D
:101EA00023895A1CAB42228102D8FFF7C1FFF7E712
:101EB0002046FFF7C3FF0023A37138BD062903D9CD
:101EC0001623437100207047114B0222052916D8B2
:101ED000DFE801F00306090C0F124FF0004110E09B
:101EE0004FF080410DE04FF000510AE04FF080517B
:101EF00007E04FF0006104E04FF0806101E04FF037
:101F000000711A71002219609A600120704700BFA9
:101F1000CC02002038B50C4601F060FA0546FFF708
:101F200087FFFF2806D001F059FA401BA042F6D3E4
:101F3000002038BD012038BDF8B505460E461746CD
:101F4000FFF7A8FF2846FFF78DFF4FF4967128464C
:101F5000FFF7E0FF46F04000FFF764FF182427FA80
:101F600004F0C0B2083CFFF75DFF14F1080FF6D192
:101F700026B1082E14BFFF20872000E09520FFF730
:101F800051FF0024FFF754FF0306E87203D5013424
:101F9000B4F5807FF6D1F8BDF8B500250271057360
:101FA00085728571457104460F4601F017FA0121CB
:101FB0000646207901F080FA0121207901F0A6FA85
:101FC0004248FFF72DFD424B40489D604FF0806234
:101FD0001A6002221A710ECBFFF738FD0A25FF2086
:101FE000013DFFF71FFF15F0FF05F8D13748FFF758
:101FF00039FD2046FFF736FF002211462046FFF745
:102000009BFF01280546E07207D001F0E7F9801B2D
:10201000B0F5FA6FF0D901233AE04FF4D5720821F8
:102020002046FFF789FF430701D525730CE00425FF
:10203000FFF7FEFE013D15F0FF05E072F8D1AA287A
:102040004FF0020324D12373237B022B0CBF4FF0EC
:1020500080450025002237212046FFF76DFF2A46E4
:1020600029212046FFF768FF0246E07238B101F0EF
:10207000B5F9801BB0F5FA6FECD9082308E0237B93
:10208000022B19D13A212046FFF756FF30B1062323
:1020900020466371FFF7D2FE0020F8BDFFF7C8FEAF
:1020A00000F0C000C02804BF03232373FFF7C0FE65
:1020B000FFF7BEFEFFF7BCFE2046FFF7BFFE394626
:1020C0002046BDE8F840FFF7F9BE00BF54020020EB
:1020D000CC02002038B5044601F080F90546FFF730
:1020E000A7FEFF28E07207D101F078F9401BB0F598
:1020F000967FF4D90F2302E0FE2806D00D23204658
:102100006371FFF79BFE002038BD012038BD2DE92B
:10211000F0411D461344B3F5007F04461646069F62
:102120003EDC83792BB103688B4202D10389934251
:1021300016D9237B2160032B18BF49020A4620468B
:102140001121FFF7F9FE804610B10323637127E0E8
:102150002046FFF7BFFF18B30123A4F80880A3713E
:102160002389B34205D2FFF763FE2389013323811C
:10217000F6E76B1E7E1E1F44BE4204D0FFF758FEDA
:1021800006F8010FF8E72389A27A2B449BB223813A
:1021900012B1B3F5007F09D32046FFF77BFE05E0BF
:1021A0002046FFF74BFE0020BDE8F0810120BDE88E
:1021B000F08110B41BB15DF8044BFFF7A8BF0120FC
:1021C0005DF8044B704707B54FF40073009200228E
:1021D000FFF79DFF03B05DF804FB70B505460846A8
:1021E0001446FFF71FFE661E04F2FF1416F8010FD7
:1021F000FFF718FEA642F9D1FF20FFF713FEFF20DC
:10220000FFF710FEFFF714FEE87200F01F0005282C
:1022100006D0112328466B71FFF710FE002070BD19
:10222000012070BDF8B5174604461E460A4609B996
:10223000122329E0037B032B18BF4A021821FFF762
:102240007BFE054608B104231EE03A46FE212046E7
:10225000FFF7C3FFC8B126B92046FFF7EFFD012005
:10226000F8BD4FF416712046FFF754FE08B9152348
:102270000AE02A460D212046FFF75EFE18B9FFF757
:10228000D7FD0028E8D0142363712046FFF7D6FD60
:102290000020F8BD38B50546FFF7E4FDFFF7C8FD9F
:1022A00004462846FFF7CAFDB4F1FF0018BF01201D
:1022B00038BD0000044B4FF080421A6000229A6043
:1022C00002221A71704700BFCC02002010B500F145
:1022D0000C0204460121406A00F01AFD60B1236A35
:1022E0002BB9E3682362237A63F07F032372237A96
:1022F00043F020032372012010BD70B50546FFF79F
:10230000E5FF08B9002070BD6A6AEB68167C147995
:10231000023B03FA06F6536933445E1E3CB13019A2
:1023200000F03AFC0028EDD0013CE4B2F6E76B6A1D
:102330001A7C4FF400739340EA691344EB61012067
:1023400070BD000010B50446406900F001FC18B1F2
:10235000207E024B03EB401010BD00BFE8020020BE
:102360002DE9FF410D464B1E01F10A02202103F821
:10237000011F9342FBD1461E00224FF0070E16F8B4
:10238000013F83B32E2B06D1BEF10A0F30D00822B5
:102390004FF00A0EF3E7184CEC4604F110082068E1
:1023A0006168674603C708344445BC46F7D10DF160
:1023B000FF3010F8011F11B18B42FAD118E0964599
:1023C00016D3A3F121015D2912D8A3F161001928C8
:1023D00002F1010198BF203B2A44C9B298BFDBB289
:1023E00013700A46CBE72878203818BF012000E098
:1023F000002004B0BDE8F081DA51000038B5427A1F
:1024000004460D460AB1002038BD91F82030102B4B
:1024100006D1022343724B8C02625B01C3610CE064
:10242000202BF0D103234372496A016200F11C02A0
:10243000284600F001FC0028E5D00023012020728E
:1024400023766562E3602361636138BD2DE9F74F50
:10245000437A04468946174613B94FF6FF776DE075
:10246000037ADA07F9D5C36902699B1A9F4200D93A
:102470009FB2DFF8D4A0DFF8D4B0B846B8F1000FAF
:1024800035D0637A2269606A022BC2F308064FEAEC
:10249000522302D1406A184418E00579013D1D40DD
:1024A000EDB25EB955B912B9236AE36006E004F1F2
:1024B0000C02E16800F08EFB0028CED0636AE06871
:1024C0001A7C5B690238904018442844C6F50075B0
:1024D000237AA845CCBFADB245465B0602D4B5F51C
:1024E000007F1AD1DAF80030984202D115E0BFB26D
:1024F00024E00146CDF800902B463246DBF8000080
:10250000FFF757FE0028A8D02369C5EB08082B4425
:10251000A94423611FFA88F8B0E7002100F018FBF6
:1025200000289AD0074B1E44711909F1FF338E42DF
:10253000EAD016F8012B03F8012FF8E738B203B000
:10254000BDE8F08FE802002000000020E402002037
:1025500037B5437A012B044601D8002016E0036901
:1025600001220DF10701C3F34315FFF76FFF0128A7
:102570000CBF9DF807304FF6FF731BB20133ECD050
:10258000236903481F33236100EB451003B030BDBE
:10259000E8020020F8B5437A04460E460BB9002045
:1025A000F8BDC2698A42FAD3022B01D01EB9E66097
:1025B00026610120F8BD636A20691B7C421E03F17D
:1025C0000901731ECA40CB409A4200D828B9226A3A
:1025D000E2601D4604F10C0709E09B1AF9E73A4650
:1025E000E168606A00F0F6FA013D0028D7D0002DBE
:1025F000F5D1DDE770B5437A04460E4643B390F952
:102600000830002B1ADA0121FFF79CFE0546F8B1CD
:10261000637A012B9CBFE369C361236A43831B0C6C
:1026200083820C4B1B682BB100F1160118309847C0
:102630002B8B6B82237A03F07F0323721EB9237ADC
:1026400023F0100323723046BDE8704000F05EBAFC
:10265000002070BDDC02002010B501210446FFF708
:10266000C9FF10B100236372012010BDF7B5437A92
:10267000012B04460D460BD1027A920708D5C26998
:102680008A4205D3002A40D02669FFF783FF08B9A4
:1026900000203BE03DB9216A606A00F093FB00280E
:1026A000F6D025621EE001AAE168606A00F092FAA5
:1026B0000028EDD0606A164B90F8207001994FF613
:1026C000F872102F08BF134699420BD200F07AFB24
:1026D0000028DDD06FF07042E168606A00F0D4FA43
:1026E0000028D5D0237AE56163F07F0323720121AE
:1026F0002046FFF77FFF0028CAD0B5422946204672
:1027000028BF3146FFF746FF00E0184603B0F0BD92
:10271000F8FFFF0F38B51C4B03EB41131546DA7A6F
:1027200012F0110F044604D015F0420F01D0002022
:1027300038BD164A2176126862615A8B998A42EA3C
:1027400001412162DA7A12F0180203D1DB69E361F8
:10275000012309E0102AEAD104F11C02606A00F0AA
:102760006BFA0028E3D00423637205F00F03002105
:1027700023726B06E160216104D52046BDE8384034
:10278000FFF774BF012038BDE802002000000020E0
:102790002DE9F043447A85B0064688461F46002C52
:1027A00078D101A91046FFF7DBFD002872D0D8F8D8
:1027B0002430DFF8FC907362C8F80C40C8F8104071
:1027C000D8F81050D8F81C309D4221D24046FFF76F
:1027D000BFFEC5F34315014600285BD0037873B1F3
:1027E000E52B59D00B2201A800F026FF0028E7D1E5
:1027F00007F03003302B4DD03A46294646E034B935
:10280000D9F80030357673610B78002B46D101245E
:1028100007F01203122B3DD134B101213046FFF7EE
:1028200091FD044650B935E098F80930022B31D0BB
:102830004046FFF762FD68B334761B4C202200212E
:10284000204600F008FF01AB03CB206061601A88CE
:102850009B78A372154B22811B682BB104F10E01EA
:1028600004F11000984706E021222274A373282265
:1028700008236274E373238A63822383E389E382F8
:10288000012000F043F928B1317E3A463046FFF787
:1028900041FF05E0002003E0002CB1D001248FE7C8
:1028A00005B0BDE8F08300BFE8020020DC02002094
:1028B000000000202DE9F74F437A012B044689469A
:1028C00017460ED190F8088018F0020F09D018F0C2
:1028D000040F0AD0E16923698B4206D0FFF75AFE44
:1028E00018B9012363600020A3E088F01008BA46FD
:1028F000C8F3001836E0606A90F804B00BF1FF3BB3
:102900000BEA562B1BF0FF0BC6F308062FD0626AAA
:10291000E368117C5269C6F50075ADB25545A3F167
:10292000020328BF55468B401344B5F5007F9B44F6
:102930003ED1414B41481A680068934504BF4FF0AF
:10294000FF321A60594643464A46FFF76BFC00289F
:10295000C7D009F500792369C5EB0A0A1D441FFA9F
:102960008AFA25612669BAF1000FC4D147E0002E2A
:10297000CDD1E16819B9236A93B1E360C7E701AA31
:1029800000F028F9002854D0636A019993F82000D8
:102990002B4B4FF6F872102808BF1346994205D307
:1029A0002046FFF793FC0028B1D19AE7E160AEE73B
:1029B0008EB92269E3699A420DD3012000F0A6F88E
:1029C00000288ED01C4B1F4AC3F800B0137843F088
:1029D0000103137006E00121584600F0B9F8002801
:1029E0003FF47FAF184B1E4471194B468E4204D002
:1029F00013F8012B06F8012BF8E7A944ABE7E369CC
:102A00009E42237A01D9E66103E0104A12681AB1A6
:102A100017B163F07F032372237A1B0701D4384672
:102A200007E001212046FFF7E5FD00283FF459AFFC
:102A3000F5E703B0BDE8F08F00000020E4020020BD
:102A4000F8FFFF0FE8040020E8020020DC0200206D
:102A500007B502AB012203F8011D1946FFF72AFF53
:102A600003B05DF804FB000070B5437A012B054606
:102A700001D0002070BD037A9A07FAD55B0703D511
:102A8000E9692B698B4205D1134B1868FFF702FCEB
:102A900028B1EEE7FFF77EFD0028F5D1E9E72B7AB4
:102AA00003F0200242B101462846FFF7A3FD2B7A2E
:102AB00023F020032B72DCE7084A126812B100F001
:102AC0000FF8D6E7286943F01003C0F308002B7213
:102AD000C0F5007080B270BDE4020020E00200206A
:102AE00010B5074C2168034639B10648064A00680C
:102AF000FFF798FB10B100232360012010BD00BF39
:102B0000E0020020E4020020E802002038B50C4D6D
:102B10002B78044693B103460A490B480B4A0968CF
:102B20000068FFF77FFB08B9002038BD34B12046AC
:102B3000FFF7D6FF0028F7D000232B70012038BD07
:102B4000E804002000000020E4020020E802002049
:102B500070B50D4D2B68834204460E460ED0012001
:102B6000FFF7D4FF08B9002070BD084B084A186869
:102B70002146FFF728FB0028F5D02C60054B19787B
:102B800031431970012070BD00000020E4020020D4
:102B9000E8020020E804002010B504460120FFF7F9
:102BA000B5FF78B10023084A194699540133B3F5AB
:102BB000007FFAD1054B064A1C60137843F00103ED
:102BC0001370012010BD00BFE802002000000020AB
:102BD000E8040020C36801338B4270B505460C46FB
:102BE000164601D2002070BD90F82020C369102A3B
:102BF0000CBF080AC80918440D4B1B68984208D13D
:102C000095F82030102B0B4B09D1E4B233F8143077
:102C10000BE00021FFF79CFF0028F1D1E2E704F070
:102C20007F0453F8243023F070433360012070BDDB
:102C300000000020E80200202DE9F74302AEDFF893
:102C4000448046F8041D0546174600244FF40079D9
:102C5000324601992846FFF7BDFF78B12B7C95F8E5
:102C6000202009FA03F31C444FF6F873102A18BF0A
:102C70004346019A9A42EBD33C60012003B0BDE881
:102C8000F08300BFF8FFFF0F0129F8B506460C4698
:102C9000174601D80020F8BDC36801339942F9D81E
:102CA00090F82030C569102B0CBF0B0ACB091D44CE
:102CB000134B1B689D4208D196F82030102B114B06
:102CC0000AD1E4B223F814700AE000212846FFF785
:102CD0003FFF0028F0D1DDE704F07F0443F82470C3
:102CE000094A137843F001031370337E012B82BF2E
:102CF000B368ED18054B4FF0010088BF1D60F8BDAB
:102D000000000020E8020020E8040020E00200208B
:102D10002DE9F74F146806468B4617461CB101345F
:102D20004FF0000A05E04B1ED3F1000A04684AEB9D
:102D3000030AF368254603F101094FF00008F36820
:102D400098451DD24D4588BF022501AA2946304627
:102D500088BF2C46FFF73EFF90B1019A6B1C0AB169
:102D60001C4602E01A1B934503D008F101081D46DA
:102D7000E5E76FF0704229463046FFF785FF58B906
:102D800000201CE005F1FF382A4641463046FFF797
:102D90007BFF0028F4D04546AC42F3D3396831B903
:102DA0003C60BAF1000F09D00134346006E02246DD
:102DB0003046FFF769FF0028F2D1E1E7012003B0B8
:102DC000BDE8F08F73B502230F4E036005460C4635
:102DD00001AA21462846FFF7FDFE88B100222146C0
:102DE0002846FFF751FF58B195F82020019C4FF677
:102DF000F873102A18BF33469C42E9D3012000E043
:102E0000002002B070BD00BFF8FFFF0FF8B53D4BCA
:102E1000044619601546DAB1042A01D90020F8BD2C
:102E200000210846FFF794FE0028F7D0364A02EB4F
:102E3000051393F8AE315B06F0D11B3502EB051597
:102E4000D5F80A30632BE9D9D5F80650002DE5D026
:102E500000212846FFF77CFE0028DFD02A4BB3F87C
:102E60000B20B2F5007FD9D1197C0029D6D0DA89A0
:102E7000002AD3D05A7B002AD0D02176002122719B
:102E80002174012094F810E000FA0EF18A4206D075
:102E90000EF10101BEF1070F2174F3D9BEE7D88A04
:102EA00008B1014601E0184A516ADA89A1602A4452
:102EB000E261B3F811701E7C678401FB06207A0181
:102EC00002F2FF1200EB622260626261B3F813103B
:102ED00009B90D49096AAD1A294421FA0EF540F6DF
:102EE000F4729542E56001D80C2307E04FF6F472C6
:102EF000954285BFDB6A63621023202384F820306B
:102F00000120F8BDE4020020E80200202DE9F04194
:102F100006460D4601EB02080C464445A4EB0507A6
:102F200007D0336814F8011B1B6830469847002807
:102F3000F3D13846BDE8F08170B505460C46084629
:102F400049B100F02BFF2B680246214628465B68FA
:102F5000BDE87040184770BD08B50249FFF7ECFFA7
:102F600008BD00BF8852000038B50546FFF7E4FFF2
:102F700004462846FFF7F0FF204438BD10B5402234
:102F80000446002100F067FB0023236463642046AD
:102F900010BD026C10B5531C446C03F03F039C42FF
:102FA0001CBF8154036410BD002303644364704755
:102FB000436C026C93421FBFC25C013303F03F03BA
:102FC000436414BF10464FF0FF307047036C406CF1
:102FD000181A48BF40307047436C026C934214BFCC
:102FE000C05C4FF0FF307047036C406C013303F05E
:102FF0003F031B1A58425841704700000649074AD0
:10300000074B9B1A03DD043BC858D050FBDC00F093
:1030100013F8FDF747F90000AC5300000000002052
:1030200090000020FEE7FEE7FEE7FEE7FEE7FEE792
:10303000FEE7FEE7FEE7FEE73A4B1A680D2A1FD0CF
:103040001B680D2B26D0374B1B680D2B09D14FF079
:103050008043D3F80024D20703D56FF00102C3F8F0
:103060000024314AD2F8883043F47003C2F8883023
:10307000BFF34F8FBFF36F8F2C4B2D4A1A607047F1
:103080004FF080420021C2F80C11C2F81011C2F8B2
:103090003815D5E74FF08052264BD2F80414C3F808
:1030A0002015D2F80814C3F82415D2F80C14C3F86C
:1030B0002815D2F81014C3F82C15D2F81414C3F83C
:1030C0003015D2F81814C3F83415D2F81C14C3F80C
:1030D0004015D2F82014C3F84415D2F82414C3F8CC
:1030E0004815D2F82814C3F84C15D2F82C14C3F89C
:1030F0005015D2F83014C3F85415D2F83414C3F86C
:103100006015D2F83814C3F86415D2F83C14C3F82B
:103110006815D2F84014C3F86C15D2F84424C3F8EB
:10312000702590E73001001000ED00E00400002061
:103130000090D00300C000400120704703681322B4
:10314000DB69184770470369C3F81C15D3F81C21C5
:10315000002AFBD00022C3F81C2101207047000088
:1031600090F85C305AB2520910B4012120320F4C51
:1031700003F01F0301FA03F344F8223003695DF8FA
:10318000044B0422C3F8082300225960D960C3F815
:1031900000254FF0FF32C3F80C251430C3F8142576
:1031A000C3F80825C3F81025FFF7FEBE00E100E0D4
:1031B0001430FFF70BBF1430FFF70EBF1430FFF7CA
:1031C000F7BE0000026990F85E3030B5C2F80C35E9
:1031D00090F85D30C2F8143590F86130012B01BFD2
:1031E00090F85F40C2F8104590F86040C2F808457A
:1031F00018BF0023B1F5966FC2F86C352ED9B1F522
:10320000166F2ED9B1F5965F2ED9B1F5165F2DD96F
:10321000B1F5615F2CD9B1F5964F2BD9B1F5E14FDE
:103220002AD9B1F5164F29D9B1F5614F29D9B1F590
:10323000963F29D9B1F5E13F28D9B1F5613F28D9A9
:10324000344B994228D9B1F5E12F28D9B1F5612F36
:103250008CBF4FF080534FF0706322E04FF49E23F9
:103260001FE04FF41D231CE02B4B1AE02B4B18E002
:103270002B4B16E02B4B14E02B4B12E04FF41D03AD
:103280000FE04FF46B030CE0284B0AE04FF0EB73B8
:1032900007E04FF06C7304E04FF0806301E04FF003
:1032A000E863C2F8243500210423C2F80035C2F8CF
:1032B0000811C2F81C11012111609160C2F8043399
:1032C00090F85C2053B2D2B202F01F055C09A9400D
:1032D0006034174D002B45F8241006DA154B02F028
:1032E0000F02134460221A7606E003F1604303F5EF
:1032F0006143602283F8002390F85C3001215AB2C8
:1033000003F01F0301FA03F35209094941F822307F
:1033100030BD00BF90D0030000B013000050270064
:1033200000F03A0000A04E0000C0750000903A0185
:1033300000E100E0FCEC00E02DE9F0411E464FF416
:103340007A73002583600E4B4560044640F8143BB9
:1033500017468846FFF712FE0A4AC4F8108052F852
:10336000263084F85D309DF8183084F85C7052F88F
:10337000233084F85E3084F861502046BDE8F08147
:10338000A0520000FC5100000369D3F8082110B5D9
:1033900004464AB1D3F818151430C9B2FFF7F9FD45
:1033A00023690022C3F8082110BD00000148FFF77F
:1033B000EBBF00BFEC04002007B5222300930222DC
:1033C000212303490348FFF7B7FF03B05DF804FB6F
:1033D00000200040EC040020FEE70000094B1968C3
:1033E000094B30B5D3F804050A060B0A02434FF423
:1033F0007A71A2FB014501FB0355E00B40EA454011
:1034000030BD00BF500500200010014038B5044613
:1034100048B1FFF7E3FF054600F01AF8FFF7DEFFBB
:10342000401B8442F8D838BD074B0022C3F8042162
:1034300082B0D3F80431054A0193019B136801332C
:10344000DBB2136002B0704700100140500500204D
:103450007047704708B500F011F8FFF7FAFF012038
:10346000FFF7D4FFFCF760FF034CFCF755FF002C7F
:10347000FBD0AFF30080F8E7000000000D4BE02226
:1034800083F811234FF40032C3F880211A604FF003
:10349000804302220121C3F81825996003F588337F
:1034A0000020C3F80805C3F80423C3F844231960B7
:1034B000704700BF00E100E0222821D8114B124ADA
:1034C00053F8203013F0200F08BF4FF0A04203F054
:1034D0001F03032914D8DFE801F0020E060A03F5E2
:1034E000E07300210AE003F5E0730C2106E003F528
:1034F000E073042102E003F5E073032142F8231096
:10350000704700BFFC51000000030050222813D870
:103510000A4B53F820200A4B12F0200F02F01F0034
:103520004FF0010208BF4FF0A043824011B9C3F829
:103530000C257047C3F80825704700BFFC510000F8
:10354000000300501FB51C46094B1B680546D86890
:1035500012B9084B1A4600E0074B02928DE80A00A8
:1035600022462B46054900F01FF800F0F3FC00BF8F
:10357000680000208A520000C8520000D5520000A6
:1035800008B5074B044613B10021AFF30080054B8B
:103590001868836A03B19847204601F041F800BFDC
:1035A00000000000085300000EB403B5014603AB51
:1035B000054853F8042B0068019300F019F902B094
:1035C0005DF804EB03B070476800002070B50E4B47
:1035D0000E4CE41AA41000251E46A54204D056F84D
:1035E000253098470135F8E701F01CF8084C094BE5
:1035F000E41AA41000251E46A54204D056F8253032
:1036000098470135F8E770BD6C0000206C00002081
:10361000880000206C000020024B0146186800F072
:1036200069B800BF68000020024B0146186800F02E
:103630001BB800BF6800002010B501390244904259
:1036400007D010F8013B11F8014FA342F7D0181B27
:1036500010BD002010BD02440346934202D003F87F
:10366000011BFAE77047000030B500293ED051F841
:10367000042C0B1F1E49002AB8BF9B180A680C4671
:1036800012B95A600B6030BD9A420ED919685818A9
:10369000824204BF106852685A6004BF091819605A
:1036A000236030BD994203D80A4651680029F9D1F8
:1036B000146815199D420AD11B682344D018814211
:1036C000136013D10868034413604B680DE002D9FE
:1036D0000C23036030BD18681C18A14204BF0C689D
:1036E0004968596004BF00191860536030BD00BFBD
:1036F0005805002070B5CD1C25F0030508350C2DAC
:1037000038BF0C25002D064603DA0C233360002059
:1037100070BDA942F9D81F4B1C681A462146A1B1B9
:103720000B685B1B0ED40B2B03D90B60CC18CD5050
:103730001EE08C420DBF63684B686360136018BF66
:103740000C4615E00C464968E9E7134C23681BB9A1
:10375000304600F005FB20602946304600F000FBB3
:10376000431CD2D0C41C24F00304A0420AD125601B
:1037700004F10B00231D20F00700C31A09D05A42A0
:10378000E25070BD211A304600F0EAFA0130EED165
:10379000BBE770BD58050020540500209368013B2D
:1037A000002B10B4936009DA9469A34202DBCBB218
:1037B0000A2B03D15DF8044B00F00CBB1368581CB6
:1037C00010601970C8B25DF8044B7047F8B5064632
:1037D0000F461446D518AC4208D03A4614F8011BDF
:1037E0003046FFF7DBFF431CF5D100E00020F8BDB9
:1037F0002DE9F04F9DB00C4617460393064618B1CD
:1038000083690BB900F0A0FC7F4B9C4201D1746826
:1038100008E07E4B9C4201D1B46803E07C4B9C42A3
:1038200008BFF468A38918070CD5236953B1002396
:10383000099320238DF8293030238DF82A30DFF8C2
:10384000D4B144E02146304600F018FB0028EED009
:103850004FF0FF30D5E0039A111D12680391002A42
:1038600080F28C80524243F002000792049098F854
:1038700000302E2B00F08480032298F80010654859
:1038800000F03EFD48B14023CBEB000003FA00F00E
:10389000049B1843049008F1010898F800105E4852
:1038A0008DF82810062208F1010700F029FD0028F4
:1038B00000F09580594B002B40F08880039B073324
:1038C00023F0070308330393099B53440993B84635
:1038D000454615F8013B1BB9B8EB07090FD003E0CB
:1038E000252BF9D0A846F3E74B463A462146304609
:1038F000FFF76CFF01307FD0099B4B44099398F888
:103900000030002B78D000234FF0FF320493079350
:10391000059206938DF853301A93012705222978D2
:103920003F4800F0EDFC05F10108049B38B13C4A2A
:10393000801A07FA00F0184304904546EEE7D906CE
:1039400044BF20228DF853201A0744BF2B228DF844
:1039500053202A782A2A3FF47EAF079A00210A20B2
:10396000A846013598F80030303B092B03D800FBFE
:1039700002320121F4E700293FF479AF079276E79C
:1039800098F801302A2B0BD1039B1A1D1B68039258
:10399000002BB8BF4FF0FF3308F1020805936BE727
:1039A0000023059308F1010019460A2580460130DD
:1039B00098F80020303A092A03D805FB0121012399
:1039C000F4E7002B3FF458AF059155E703AB0093A4
:1039D0002246144B04A93046AFF3008007E003AB46
:1039E000009322460F4B04A9304600F093F8B0F143
:1039F000FF3F82467FF468AFA3895B063FF528AF9F
:103A000009981DB0BDE8F08F4053000060530000DE
:103A10008053000012530000165300000000000005
:103A20000C530000CD3700002DE9F04791461F46AA
:103A30000A698B68DDF820809342B8BF1346C9F845
:103A4000003091F8432006460C4612B10133C9F804
:103A500000302368990642BFD9F800300233C9F814
:103A60000030256815F0060510D104F1190A07E0A9
:103A70000123524639463046C04701301AD001353D
:103A8000E368D9F800209B1A9D42F1DB94F843309B
:103A90002268003318BF012392060FD5E1185A1C83
:103AA000302081F84300224494F8451082F84310F6
:103AB000023303E04FF0FF30BDE8F08704F143022A
:103AC00039463046C0470130F4D02268D9F800505A
:103AD000E36802F00602042A08BF5D1B2269A3689E
:103AE0000CBF25EAE57500259342C4BF9B1AED186B
:103AF0004FF000091A344D4509D0012322463946BA
:103B00003046C0470130D5D009F10109F3E7002064
:103B1000BDE8F0872DE9F04317460A7E85B06E2A8E
:103B2000984606460C460C9B01F1430E00F0AE8011
:103B300011D8632A22D009D8002A00F0BB80582A65
:103B400040F0CA8081F84520834955E0642A1ED0A0
:103B5000692A1CD0C0E0732A00F0B08009D86F2A0F
:103B60002ED0702A40F0B8800A6842F020020A6025
:103B70003EE0752A24D0782A3AD0ADE01A6801F1E7
:103B80004205111D1960136884F84230A8E02168CD
:103B90001A6811F0800F02D0111D196008E011F0B1
:103BA000400F02F10401196002D0B2F9003000E0C8
:103BB0001368002B3CDA2D225B4284F8432037E067
:103BC00021681A6811F0800F02D0111D196007E0FA
:103BD00011F0400F02F10401196001D0138800E0D8
:103BE0001368227E5C496F2A14BF0A2208221BE058
:103BF00078225A4984F845202268186812F0800F0C
:103C000000F104051D6003D1550601D5038800E0CD
:103C10000368D00744BF42F0200222601BB922682B
:103C200022F0200222601022002084F8430001E0EC
:103C300049490A226568A560002D08DB206820F04C
:103C4000040020602BB9002D7DD175460CE0002BBF
:103C500079D07546B3FBF2F002FB1033CB5C05F86C
:103C6000013D03460028F5D1082A0BD12368DA0765
:103C700008D5236962689A42DEBF302305F8013C0B
:103C800005F1FF35C5EB0E0323612EE008681A68C5
:103C9000496910F0800F03D0101D1860136808E008
:103CA00010F0400F02F104001860136801D0198071
:103CB00000E0196000232361754616E01A68111DA3
:103CC0001960156862680021284600F019FB08B1E8
:103CD000401B6060636804E004F1420584F8422000
:103CE00001232361002384F84330CDF800803B4654
:103CF00003AA21463046FFF797FE013002D14FF06C
:103D0000FF3026E023692A4639463046C047013055
:103D1000F5D023689B0710D5002504F1190907E0A9
:103D200001234A4639463046C0470130E7D00135C5
:103D3000E368039A9B1A9D42F2DBE068039B98427A
:103D4000B8BF184605E00B7884F8423004F142050C
:103D50008AE705B0BDE8F0831D5300002E53000034
:103D600038B5064C002305460846236000F042FCA7
:103D7000431C02D1236803B12B6038BD60050020CD
:103D8000C9B2034610F8012B1AB19142F9D1184675
:103D9000704700290CBF184600207047034613F8EF
:103DA000012B002AFBD1181A0138704710B50346C1
:103DB00042B111F8014B03F8014B013A002CF7D145
:103DC0001A4400E010BD934202D003F8014BFAE719
:103DD00010BD0000F8B50F461446064618B18369B9
:103DE0000BB900F0B1F9224B9C4201D1746808E094
:103DF000204B9C4201D1B46803E01F4B9C4208BF9A
:103E0000F468A369A360A3891A0709D523693BB1A4
:103E100023682069181A63699842FDB20FDB08E035
:103E20002146304600F02AF80028F1D04FF0FF304C
:103E3000F8BD2146304600F01DF90028F6D1A368F0
:103E4000013BA36023685A1C22601F706269431CF7
:103E5000934204D0A389DB0707D50A2D05D121465B
:103E6000304600F007F90028E0D12846F8BD00BF31
:103E7000405300006053000080530000314B70B588
:103E80001D6806460C4625B1AB6913B9284600F0FB
:103E90005BF92D4B9C4201D16C6808E02B4B9C4296
:103EA00001D1AC6803E02A4B9C4208BFEC68A389AF
:103EB0009AB211071DD4D50602D40922326038E027
:103EC000500712D5616B41B104F14403994202D00D
:103ED0003046FFF7C9FB00236363A38923F0240363
:103EE000A3810023636023692360A38943F008034F
:103EF000A38123694BB9A38903F42073B3F5007F31
:103F000003D02146304600F0A9F9A38913F001023D
:103F100005D00022A26062695242A26103E09907C3
:103F200058BF6269A26022694AB903F0800080B27A
:103F300030B143F04003A3814FF0FF3070BD00204B
:103F400070BD00BF680000204053000060530000B7
:103F50008053000008B5062000F04CFA012000F064
:103F60005FFB00008A892DE9F041054610070C46E9
:103F700059D44B68002B02DC0B6C002B17DDE66A72
:103F8000AEB102F48052002392B22F682B600AB1C6
:103F9000606D15E0216A01232846B047411C0FD10E
:103FA0002B686BB11D2B01D0162B03D12F60002085
:103FB000BDE8F081A38943F04003A381BDE8F0810F
:103FC000A3895A0705D56368C01A636B0BB1236CCC
:103FD000C01A00230246E66A216A2846B047431CFD
:103FE000A38906D129681D293AD8214ACA40D60793
:103FF00036D500226260D9042269226004D5421CB1
:1040000001D12B6803B96065616B2F600029CED0A8
:1040100004F14403994202D02846FFF725FB002013
:104020006063BDE8F0810F69002FC0D093070E6870
:1040300008BF4B690F6018BF0023C7EB06088B60F1
:1040400002E00744C0EB0808B8F1000FAFDD4346BB
:104050003A46216AA66A2846B0470028F1DCA389BF
:1040600043F04003A3814FF0FF30BDE8F08100BF73
:104070000100402038B50B6905460C46DBB118B18C
:1040800083690BB900F060F80C4B9C4201D16C685D
:1040900008E00B4B9C4201D1AC6803E0094B9C4209
:1040A00008BFEC68B4F90C302BB121462846BDE8B6
:1040B0003840FFF757BF002038BD00BF4053000015
:1040C0006053000080530000014900F0A9B800BF10
:1040D00075400000002310B5044603604360836010
:1040E00081814366C281036143618361194608226D
:1040F0005C30FFF7B0FA054B6362054BA362054BDA
:10410000E362054B2462236310BD00BF2D44000011
:104110004F44000087440000AB44000070B56823A2
:104120004D1E5D430E4605F17401FFF7E3FA0446A8
:1041300040B1002180E842000C30A06005F1680227
:10414000FFF789FA204670BD836910B5044633BB7A
:104150008364C3640365124B124A1B6882629842EF
:1041600004BF0123836100F01FF86060204600F067
:104170001BF8A060204600F017F80022E060042140
:104180006068FFF7A7FF01220921A068FFF7A2FFDF
:1041900002221221E068FFF79DFF0123A36110BDF9
:1041A00008530000C9400000F8B51C4B1E68B369F5
:1041B000074613B93046FFF7C7FF4836B46873683F
:1041C000013B04D4B4F90C507DB16834F8E733688E
:1041D0000BB13668F2E704213846FFF79FFF3060E5
:1041E0000028F6D10C233B60F8BD4FF6FF73E38146
:1041F0000123A38165662560A56065602561656111
:10420000A5610822294604F15C00FFF724FA6563E2
:10421000A563A564E5642046F8BD00BF085300000F
:104220002DE9F8438046894600F14804002694B100
:10423000A5686768013F0CD4AB89012B07D9B5F994
:104240000E30013303D029464046C847064368353F
:10425000F0E72468EBE73046BDE8F883F0B58B89DA
:104260009D0791B006460C4626D4B1F90E100029E0
:1042700009DAA38913F0800F4FF0000514BF40271F
:104280004FF480670DE001AA00F036F90028F0DB5A
:10429000029D05F47045A5F500514D424D414FF486
:1042A000806739463046FFF725FA60B9A3899A0539
:1042B0001DD443F00203A38104F14703236023616B
:1042C0000123636113E00B4BB362A389206043F0C9
:1042D0008003A381206167614DB1B4F90E103046AF
:1042E00000F01CF918B1A38943F00103A38111B0B8
:1042F000F0BD00BFC9400000000000000000000049
:1043000001F0FF01102A2BDB10F0070F08D010F886
:10431000013B013A8B422DD010F0070F42B3F6D18A
:10432000F0B441EA012141EA014122F007047FF0A3
:1043300000070023F0E80256083C85EA010586EAFA
:10434000010685FA47F5A3FA87F586FA47F6A5FA36
:1043500087F68EB9EED1F0BC01F0FF0102F0070242
:1043600032B110F8013B013A83EA010313B1F8D1ED
:104370000020704701387047002D06BF35460338CE
:10438000073815F0010F07D1013015F4807F02BF07
:10439000013015F4C03F0130F0BC0138704700BF58
:1043A0001F2938B504460D4604D9162303604FF083
:1043B000FF3038BD426C12B152F821304BB9204663
:1043C00000F032F82A4601462046BDE8384000F0A9
:1043D00019B8012B0CD0591C03D1162303600120FE
:1043E00038BD0024284642F825409847204638BD6D
:1043F000002038BD024B01461868FFF7D1BF00BF4F
:104400006800002038B5074C0023054608461146D1
:10441000236000F0D7F8431C02D1236803B12B605E
:1044200038BD00BF6005002000F0BCB810B50C46D8
:10443000B1F90E1000F094F80028ABBF636DA389AA
:104440001B1823F48053ACBF6365A38110BD2DE915
:10445000F0411F468B89DB0505460C46164605D5FF
:1044600002230022B1F90E1000F068F8A389B4F914
:104470000E1023F48053A38132463B462846BDE804
:10448000F04100F017B810B50C46B1F90E1000F06D
:1044900055F8431CA38915BF606523F4805343F48A
:1044A0008053A38118BFA38110BDB1F90E1000F095
:1044B00013B8000038B5074C0546084611460022DF
:1044C00022601A4600F0A4F8431C02D1236803B10D
:1044D0002B6038BD6005002038B5064C002305462A
:1044E0000846236000F04EF8431C02D1236803B154
:1044F0002B6038BD6005002038B5074C0023054609
:1045000008461146236000F045F8431C02D1236899
:1045100003B12B6038BD00BF6005002038B5064CE4
:10452000002305460846236000F044F8431C02D1EE
:10453000236803B12B6038BD6005002038B5074CF7
:10454000054608461146002222601A4600F042F84D
:10455000431C02D1236803B12B6038BD60050020E5
:1045600038B5074C054608461146002222601A4617
:1045700000F038F8431C02D1236803B12B6038BD2A
:1045800060050020024B58221A604FF0FF30704740
:1045900060050020024B58221A604FF0FF30704730
:1045A00060050020024B58221A604FF0FF30704720
:1045B00060050020024B58221A600020704700BF9F
:1045C00060050020024B58221A604FF0FF30704700
:1045D00060050020024B58221A604FF0FF307047F0
:1045E00060050020024B58221A604FF0FF307047E0
:1045F00060050020044A05491368002B08BF0B46DC
:1046000018441060184670475C05002068050020BB
:10461000024B58221A604FF0FF30704760050020AF
:10462000FEE700BFF8B500BFF8BC08BC9E46704767
:10463000F8B500BFF8BC08BC9E467047696E697447
:1046400069616C697A6174696F6E206661696C6515
:104650006421005374617274696E672E2E2E00629D
:1046600061646170706C652E62696E0066696E6966
:1046700073686564212100000103070F1F3F7F223B
:1046800000FF21000080C0E0F0F8FCFE0000000008
:1046900000000000F11400000D2F00009D04000038
:1046A0003D0F0000F30E0000250F0000010F000079
:1046B000130F0000310E00003D0F00001D1100001F
:1046C00051060000B30C0000650C0000B70F00009D
:1046D000FD0F0000191000009B100000000060009A
:1046E00000000000000000000000000000E00000EA
:1046F000000000000000000000000001E0000000D9
:104700000000000000000000000001F000000000B8
:1047100000000000000000000003F00000000000A6
:10472000000000000000000007F000000000000092
:104730000000000000000007F8000000000000007A
:104740000000000000000FF800000003C0007E0021
:104750000001E0007F0FF800000003C000FE000031
:1047600001E000FFEFF800000003C000FE000001C0
:10477000E000FFFFF800000003C000F00000000FA1
:10478000007FFE7FC0000003C000F00000000F00AB
:104790003FFE7FF83FF1FBCFFCFEF3BC3DEFE01F97
:1047A000FE7FFF7FFBFFDFFEFEFFBC3DEFE01FC68D
:1047B000FFFF7FFBFFDFFEFEFFBC3DEFE00FE3C727
:1047C000FE787BC3DE1EF0FFBC3DEF0007FF87FCD9
:1047D000787BC3DE1EF0F83C3DEF0001FFFFF000E8
:1047E0007BC3C01EF0F03C3DEF0001F37FE03FFBD8
:1047F000C3CFFEF0F03C3DEF0003E33F807FFBC3FF
:10480000DFFEF0F03C3DEF0007E73C00787BC3DEC5
:104810001EF0F03C3DEF0007FFBE00787BC3DE1EBC
:10482000F0F03C3DEF0007FFFE00787BC3DE1EF09A
:10483000F03C3DEF000FFFFE007FFBFFDFFEF0F0DE
:104840003FFDEFE00FFFFF007FFBFFDFFEF0F03FDB
:10485000FDEFE00FF9FF003E79F9CF9EF0F01F3D2C
:10486000E7E01FF1FF000000000000000000000072
:10487000001F80FF007FFFFFFFFFFFFFFFFFFFE044
:104880001C007F007FFFFFFFFEB46D888D18E000E5
:10489000001F007FFFFFFFFE95AD7DB577E00000B4
:1048A0000F007FFFFFFFFEA5AD9D8D19E000000604
:1048B000007FFFFFFFFEB5ADEDB57EE0AED580A871
:1048C000D300408D2000A1C8DB40A4A62EAF00007D
:1048D00000000001800000000000000000000380D4
:1048E00000000000000000000007C0000000000001
:1048F0000000000007C00000000000000000000FE2
:10490000C00000000000000000001FE000000000E8
:1049100000000000001FE000000000000000000098
:104920003FE00000000000000000003FF000000039
:104930000000000000007FF0000000000000001FE9
:10494000F87FF0000000000000003FFE7FF0000054
:1049500000000000003FFF7FF000000000000000AA
:104960001FFFFBE0000000000000000FFFF9FFC088
:104970000000000000000FFFF9FFF8000000000039
:104980000007FFF1FFFF00000000000003FC73FFC1
:10499000FF80000000000001FE3FFFFF80000000DC
:1049A000000000FF1E0FFF000000000000007FFE5F
:1049B0001FFC000000000000003FFFFFF8000000A7
:1049C000000000000FDFFFE0000000000000001FFB
:1049D00019FFC0000000000000003F3CFF00000085
:1049E00000000000007E7CF80000000000000000D5
:1049F0007FFE7C0000000000000000FFFFFC0000C4
:104A0000000000000000FFFFFE00000000000000AA
:104A100000FFFFFE0000000000000001FFEFFE00AD
:104A200000000000000001FFCFFE000000000000B9
:104A30000003FF07FE0000000000000003FC07FE6B
:104A40000000000000000003F003FE000000000072
:104A50000000018000FE00000000000000000000D7
:104A60007E000000000000000000003E000000008A
:104A70000000000000000C000000000000078000A3
:104A8000FC000003C0000000078001FC000003C020
:104A9000000000078001FC000003C0000000078048
:104AA00001E00000001E000000078001E00000009F
:104AB0001E007FE3F79FF9FDE7787BDFC0FFF7FF7C
:104AC000BFFDFDFF787BDFC0FFF7FFBFFDFDFF7877
:104AD0007BDFC0F0F787BC3DE1FF787BDE00F0F7BD
:104AE00087BC3DE1F0787BDE0000F787803DE1E0A8
:104AF000787BDE007FF7879FFDE1E0787BDE00FFBB
:104B0000F787BFFDE1E0787BDE00F0F787BC3DE191
:104B1000E0787BDE00F0F787BC3DE1E0787BDE00EB
:104B2000F0F787BC3DE1E0787BDE00FFF7FFBFFDDB
:104B3000E1E07FFBDFC0FFF7FFBFFDE1E07FFBDFD0
:104B4000C07CF3F39F3DE1E03E7BCFC0000000005E
:104B500000000000000000FFFFFFFFFFFFFFFFFF5E
:104B6000FFC0FFFFFFFFFD68DB111A31C0FFFFFF31
:104B7000FFFD2B5AFB6AEFC0FFFFFFFFFD4B5B3BC6
:104B80001A33C0FFFFFFFFFD6B5BDB6AFDC0000057
:104B90000000000000000000F11400000D2F0000D4
:104BA000D93300003D0F0000F30E0000250F000078
:104BB000010F0000130F0000310E00003D0F000038
:104BC0001D1100001B1100003F0F00007D0F0000B1
:104BD000B70F0000FD0F0000191000009B1000002F
:104BE00000000000003E5B4F5B3E3E6B4F6B3E1C87
:104BF0003E7C3E1C183C7E3C181C577D571C1C5E9E
:104C00007F5E1C00183C1800FFE7C3E7FF00182474
:104C10001800FFE7DBE7FF30483A060E262979291E
:104C200026407F050507407F05253F5A3CE73C5A53
:104C30007F3E1C1C08081C1C3E7F14227F22145F30
:104C40005F005F5F06097F017F006689956A60608B
:104C500060606094A2FFA29408047E040810207E85
:104C6000201008082A1C08081C2A08081E1010100A
:104C7000100C1E0C1E0C30383E3830060E3E0E0650
:104C8000000000000000005F0000000700070014A3
:104C90007F147F14242A7F2A122313086462364962
:104CA0005620500008070300001C2241000041224A
:104CB0001C002A1C7F1C2A08083E0808008070304F
:104CC00000080808080800006060002010080402BE
:104CD0003E5149453E00427F4000724949494621C4
:104CE00041494D331814127F1027454545393C4A38
:104CF000494931412111090736494949364649494F
:104D0000291E000014000000403400000008142296
:104D10004114141414140041221408020159090604
:104D20003E415D594E7C1211127C7F494949363E05
:104D3000414141227F4141413E7F494949417F09EB
:104D40000909013E414151737F0808087F00417FF6
:104D500041002040413F017F081422417F404040F4
:104D6000407F021C027F7F0408107F3E4141413E8C
:104D70007F090909063E4151215E7F09192946260E
:104D80004949493203017F01033F4040403F1F2012
:104D900040201F3F4038403F6314081463030478E9
:104DA00004036159494D43007F4141410204081009
:104DB00020004141417F0402010204404040404044
:104DC000000307080020545478407F2844443838B2
:104DD00044444428384444287F3854545418000824
:104DE0007E090218A4A49C787F0804047800447DFE
:104DF00040002040403D007F1028440000417F409B
:104E0000007C047804787C080404783844444438EE
:104E1000FC1824241818242418FC7C0804040848CE
:104E20005454542404043F44243C4040207C1C201F
:104E300040201C3C4030403C44281028444C90907A
:104E4000907C4464544C44000836410000007700D4
:104E500000004136080002010204023C2623263CE1
:104E60001EA1A161123A4040207A3854545559216C
:104E70005555794122545478422155547840205454
:104E80005579400C1E5272123955555559395454A2
:104E9000545939555454580000457C410002457D11
:104EA000420001457C407D1211127DF0282528F03A
:104EB0007C545545002054547C547C0A097F493267
:104EC000494949323A4444443A324A4848303A41DE
:104ED00041217A3A42402078009DA0A07D3D424287
:104EE000423D3D4040403D3C24FF2424487E494310
:104EF000662B2FFC2F2BFF0929F620C0887E090383
:104F000020545479410000447D413048484A3238A9
:104F10004040227A007A0A0A727D0D19317D2629D5
:104F2000292F28262929292630484D4020380808CD
:104F3000080808080808382F10C8ACBA2F10283401
:104F4000FA00007B000008142A142222142A1408F4
:104F50005500550055AA55AA55AAFF55FF55FF0003
:104F60000000FF00101010FF00141414FF001010B8
:104F7000FF00FF1010F010F0141414FC001414F7CC
:104F800000FF0000FF00FF1414F404FC14141710B9
:104F90001F10101F101F1414141F00101010F00009
:104FA0000000001F101010101F10101010F0100043
:104FB0000000FF101010101010101010FF10000053
:104FC00000FF140000FF00FF00001F10170000FC8E
:104FD00004F414141710171414F404F40000FF0060
:104FE000F714141414141414F700F71414141714E9
:104FF00010101F101F141414F4141010F010F000EF
:10500000001F101F0000001F14000000FC1400000F
:10501000F010F01010FF10FF141414FF14101010F3
:105020001F00000000F010FFFFFFFFFFF0F0F0F0A6
:10503000F0FFFFFF0000000000FFFF0F0F0F0F0F3A
:105040003844443844FC4A4A4A347E020206060286
:105050007E027E0263554941633844443C04407EED
:10506000201E2006027E020299A5E7A5991C2A4966
:105070002A1C4C7201724C304A4D4D3030487848F1
:1050800030BC625A463D3E494949007E0101017EDD
:105090002A2A2A2A2A44445F444440514A44404030
:1050A000444A51400000FF0103E080FF000008086F
:1050B0006B6B083612362436060F090F06000018EF
:1050C000180000001010003040FF0101001F010116
:1050D0001E00191D1712003C3C3C3C000000000063
:1050E00000000000000000002B160000EF1500007B
:1050F000251600004F16000055160000231600006C
:10510000535049436C6173733A3A535049436C614D
:105110007373284E52465F5350495F547970652A25
:105120002C2075696E74385F742C2075696E743824
:105130005F742C2075696E74385F742900705F731A
:10514000706920213D204E554C4C00433A5C55730C
:105150006572735C73616368695C4170704461740B
:10516000615C4C6F63616C5C41726475696E6F3138
:10517000355C7061636B616765735C73616E6465F8
:1051800065706D69737472795C686172647761725D
:10519000655C6E5246355C302E372E305C6C696231
:1051A0007261726965735C5350495C5350492E6358
:1051B000707000000000000000000000B91A00003C
:1051C000CF1A0000E71B0000291B00003B1B00005A
:1051D000FD1A0000F31A00002F007C3C3E5E2B3DC0
:1051E0003F2F5B5D3B2C2A225C000000000000008A
:1051F00000000000512A00000D2F000002000000F6
:1052000003000000040000001F0000001C0000005C
:105210000E000000250000000B0000000A00000046
:10522000090000001E000000170000000C00000034
:1052300011000000010000000D000000220000002D
:10524000FFFFFFFFFFFFFFFF1A000000200000002C
:1052500015000000160000000F00000018000000FC
:1052600013000000240000000000000014000000F3
:1052700005000000100000000800000019000000F8
:1052800028000000060000000D0A006E616E006933
:105290006E66006F766600000000000000000000EF
:1052A000473100000D2F0000B1310000BD3100007A
:1052B000B7310000453100003D310000C53100002C
:1052C00061310000393100002C2066756E6374690D
:1052D0006F6E3A2000617373657274696F6E20227D
:1052E000257322206661696C65643A2066696C6585
:1052F00020222573222C206C696E6520256425737D
:1053000025730A004300000008000020232D302BE5
:105310002000686C4C0065666745464700303132B6
:10532000333435363738394142434445460030310D
:10533000323334353637383961626364656600006C
:10534000000000000000000000000000000000005D
:10535000000000000000000000000000000000004D
:10536000000000000000000000000000000000003D
:10537000000000000000000000000000000000002D
:10538000000000000000000000000000000000001D
:10539000000000000000000000000000000000000D
:0453A0000000000009
:0853A40000AFFF7F01000000D3
:1053AC00FFFFFFFF0090D0030000000040530000FF
:1053BC00605300008053000000000000000000005B
:1053CC00000000000000000004530000000000007A
:1053DC0000000000000000000000000000000000C1
:1053EC0000000000000000000000000000000000B1
:1053FC0000000000000000000000000000000000A1
:10540C000000000000000000080000206D020000F9
:10541C001D03000041190000851A0000FD1D00004D
:10542C00B5220000B9330000450200000000000066
:0400000300002FFDCD
:00000001FF
